:020000040800F2
:10000000000002207D310008972F00089D2F000876
:10001000A32F0008A92F0008AF2F00080000000040
:10002000000000000000000000000000B52F0008E4
:10003000C32F000800000000D12F0008DF2F0008A8
:10004000CD310008CD310008CD310008CD31000898
:10005000CD310008CD310008CD310008CD31000888
:10006000CD310008CD310008CD310008CD31000878
:10007000CD310008CD310008CD310008CD31000868
:10008000CD310008CD310008CD310008000000005E
:10009000000000000000000000000000CD3100085A
:1000A000CD310008CD310008CD310008CD31000838
:1000B000510F0008CD310008CD310008CD310008C6
:1000C000CD310008CD310008CD310008CD31000818
:1000D000CD310008ED2F0008CD31000800000000F0
:1000E000CD310008CD310008CD31000800000000FE
:1000F000000000000000000000000000CD310008FA
:1001000000000000CD310008CD310008CD310008DD
:1001100000000000000000000000000000000000DF
:10012000CD310008CD310008CD310008CD310008B7
:10013000CD310008000000000000000000000000B9
:10014000000000000000000000000000CD310008A9
:10015000CD310008CD310008CD310008CD31000887
:10016000CD310008CD310008000000000000000083
:10017000000000000000000000000000000000007F
:1001800000000000CD310008000000000000000069
:08019000CD310008CD3100085B
:1001A00010B5054C237833B9044B13B10448AFF3B1
:1001B00000800123237010BD7000002000000000AB
:1001C0009073000808B5034B1BB103490348AFF314
:1001D000008008BD0000000074000020907300083B
:1001E000034613F8012B002AFBD1181A0138704777
:1001F00001F0FF01102A2BDB10F0070F08D010F8D8
:10020000013B013A8B422DD010F0070F42B3F6D1DB
:10021000F0B441EA012141EA014122F007047FF0F4
:1002200000070023F0E80256083C85EA010586EA4B
:10023000010685FA47F5A3FA87F586FA47F6A5FA87
:1002400087F68EB9EED1F0BC01F0FF0102F0070293
:1002500032B110F8013B013A83EA010313B1F8D13E
:100260000020704701387047002D06BF354603381F
:10027000073815F0010F07D1013015F4807F02BF58
:10028000013015F4C03F0130F0BC0138704700BFA9
:1002900081F0004102E000BF83F0004330B54FEA37
:1002A00041044FEA430594EA050F08BF90EA020FA4
:1002B0001FBF54EA000C55EA020C7FEA645C7FEA37
:1002C000655C00F0E2804FEA5454D4EB5555B8BF5A
:1002D0006D420CDD2C4480EA020281EA030382EACB
:1002E000000083EA010180EA020281EA0303362D5D
:1002F00088BF30BD11F0004F4FEA01314FF4801C30
:100300004CEA113102D0404261EB410113F0004F41
:100310004FEA03334CEA133302D0524263EB4303F8
:1003200094EA050F00F0A780A4F10104D5F1200E96
:100330000DDB02FA0EFC22FA05F2801841F10001F1
:1003400003FA0EF2801843FA05F359410EE0A5F1C5
:1003500020050EF1200E012A03FA0EFC28BF4CF0F6
:10036000020C43FA05F3C01851EBE37101F00045AC
:1003700007D54FF0000EDCF1000C7EEB00006EEBB9
:100380000101B1F5801F1BD3B1F5001F0CD3490843
:100390005FEA30004FEA3C0C04F101044FEA44529A
:1003A00012F5800F80F09A80BCF1004F08BF5FEA21
:1003B000500C50F1000041EB045141EA050130BD01
:1003C0005FEA4C0C404141EB0101013C28BFB1F513
:1003D000801FE9D291F0000F04BF01460020B1FA5E
:1003E00081F308BF2033A3F10B03B3F120020CDA31
:1003F0000C3208DD02F1140CC2F10C0201FA0CF00F
:1004000021FA02F10CE002F11402D8BFC2F1200C73
:1004100001FA02F120FA0CFCDCBF41EA0C01904029
:10042000E41AA2BF01EB0451294330BD6FEA040472
:100430001F3C1CDA0C340EDC04F11404C4F120025D
:1004400020FA04F001FA02F340EA030021FA04F36F
:1004500045EA030130BDC4F10C04C4F1200220FAC6
:1004600002F001FA04F340EA0300294630BD21FA04
:1004700004F0294630BD94F0000F83F4801306BFCA
:1004800081F480110134013D4EE77FEA645C18BFBE
:100490007FEA655C29D094EA050F08BF90EA020F55
:1004A00005D054EA000C04BF1946104630BD91EA4D
:1004B000030F1EBF0021002030BD5FEA545C05D150
:1004C0004000494128BF41F0004130BD14F580048F
:1004D0003CBF01F5801130BD01F0004545F0FE4103
:1004E00041F470014FF0000030BD7FEA645C1ABF38
:1004F000194610467FEA655C1CBF0B46024650EA6F
:10050000013406BF52EA033591EA030F41F400219A
:1005100030BD00BF90F0000F04BF0021704730B520
:100520004FF4806404F132044FF000054FF00001F5
:1005300050E700BF90F0000F04BF0021704730B5B6
:100540004FF4806404F1320410F0004548BF40428B
:100550004FF000013EE700BF42004FEAE2014FEAE0
:1005600031014FEA02701FBF12F07F4393F07F4FBB
:1005700081F06051704732F07F4208BF704793F0BE
:100580007F4F04BF41F40021704730B54FF46074D1
:1005900001F0004521F000411CE700BF50EA0102D4
:1005A00008BF704730B54FF000050AE050EA01027D
:1005B00008BF704730B511F0004502D5404261EBED
:1005C00041014FF4806404F132045FEA915C3FF42E
:1005D000D8AE4FF003025FEADC0C18BF03325FEACB
:1005E000DC0C18BF033202EBDC02C2F1200300FA7C
:1005F00003FC20FA02F001FA03FE40EA0E0021FAA1
:1006000002F11444BDE600BF70B54FF0FF0C4CF48E
:10061000E06C1CEA11541DBF1CEA135594EA0C0F40
:1006200095EA0C0F00F0DEF82C4481EA030621EA7B
:100630004C5123EA4C5350EA013518BF52EA0335B6
:1006400041F4801143F4801338D0A0FB02CE4FF068
:100650000005E1FB02E506F00042E0FB03E54FF098
:100660000006E1FB03569CF0000F18BF4EF0010E90
:10067000A4F1FF04B6F5007F64F5407404D25FEA8C
:100680004E0E6D4146EB060642EAC62141EA55513F
:100690004FEAC52040EA5E504FEACE2EB4F1FD0C81
:1006A00088BFBCF5E06F1ED8BEF1004F08BF5FEAFF
:1006B000500E50F1000041EB045170BD06F00046B1
:1006C00046EA010140EA020081EA0301B4EB5C045E
:1006D000C2BFD4EB0C0541EA045170BD41F4801156
:1006E0004FF0000E013C00F3AB8014F1360FDEBF7B
:1006F000002001F0004170BDC4F10004203C35DA57
:100700000C341BDC04F11404C4F1200500FA05F3D9
:1007100020FA04F001FA05F240EA020001F000427A
:1007200021F0004110EBD37021FA04F642EB0601F0
:100730005EEA430E08BF20EAD37070BDC4F10C041A
:10074000C4F1200500FA04F320FA05F001FA04F2DE
:1007500040EA020001F0004110EBD37041F10001CA
:100760005EEA430E08BF20EAD37070BDC4F12005D5
:1007700000FA05F24EEA020E20FA04F301FA05F23D
:1007800043EA020321FA04F001F0004121FA04F2E5
:1007900020EA020000EBD3705EEA430E08BF20EAB5
:1007A000D37070BD94F0000F0FD101F000464000EF
:1007B00041EB010111F4801F08BF013CF7D041EA71
:1007C000060195F0000F18BF704703F00046520075
:1007D00043EB030313F4801F08BF013DF7D043EA46
:1007E0000603704794EA0C0F0CEA135518BF95EAFC
:1007F0000C0F0CD050EA410618BF52EA4306D1D183
:1008000081EA030101F000414FF0000070BD50EAA1
:10081000410606BF1046194652EA430619D094EA2B
:100820000C0F02D150EA013613D195EA0C0F05D115
:1008300052EA03361CBF104619460AD181EA030169
:1008400001F0004141F0FE4141F470014FF0000021
:1008500070BD41F0FE4141F4780170BD70B54FF0BC
:10086000FF0C4CF4E06C1CEA11541DBF1CEA13553C
:1008700094EA0C0F95EA0C0F00F0A7F8A4EB05041E
:1008800081EA030E52EA03354FEA013100F0888015
:100890004FEA03334FF0805545EA131343EA1263DE
:1008A0004FEA022245EA111545EA10654FEA002693
:1008B0000EF000419D4208BF964244F1FD0404F54C
:1008C000407402D25B084FEA3202B61A65EB0305A8
:1008D0005B084FEA32024FF480104FF4002CB6EB65
:1008E000020E75EB030E22BFB61A754640EA0C00E5
:1008F0005B084FEA3202B6EB020E75EB030E22BF25
:10090000B61A754640EA5C005B084FEA3202B6EB65
:10091000020E75EB030E22BFB61A754640EA9C0024
:100920005B084FEA3202B6EB020E75EB030E22BFF4
:10093000B61A754640EADC0055EA060E18D04FEAB2
:10094000051545EA16754FEA06164FEAC30343EA52
:1009500052734FEAC2025FEA1C1CC0D111F4801F1F
:100960000BD141EA00014FF000004FF0004CB6E718
:1009700011F4801F04BF01430020B4F1FD0C88BFB7
:10098000BCF5E06F3FF6AFAEB5EB030C04BFB6EBC2
:10099000020C5FEA500C50F1000041EB045170BDB5
:1009A0000EF0004E4EEA113114EB5C04C2BFD4EBE2
:1009B0000C0541EA045170BD41F480114FF0000E66
:1009C000013C90E645EA060E8DE60CEA135594EAE2
:1009D0000C0F08BF95EA0C0F3FF43BAF94EA0C0FE5
:1009E0000AD150EA01347FF434AF95EA0C0F7FF45A
:1009F00025AF104619462CE795EA0C0F06D152EAAE
:100A000003353FF4FDAE1046194622E750EA410691
:100A100018BF52EA43067FF4C5AE50EA41047FF4A2
:100A20000DAF52EA43057FF4EBAE12E74FF0FF3C07
:100A300006E000BF4FF0010C02E000BF4FF0010CD8
:100A40004DF804CD4FEA410C7FEA6C5C4FEA430C51
:100A500018BF7FEA6C5C1BD001B050EA410C0CBFA0
:100A600052EA430C91EA030F02BF90EA020F002002
:100A7000704710F1000F91EA030F58BF994208BF69
:100A800090422CBFD8176FEAE37040F00100704726
:100A90004FEA410C7FEA6C5C02D150EA013C07D17D
:100AA0004FEA430C7FEA6C5CD6D152EA033CD3D0C8
:100AB0005DF8040B704700BF8446104662468C46C2
:100AC0001946634600E000BF01B5FFF7B7FF0028F5
:100AD00048BF10F1000F01BD4DF808EDFFF7F4FF1E
:100AE0000CBF012000205DF808FB00BF4DF808EDA9
:100AF000FFF7EAFF34BF012000205DF808FB00BFCC
:100B00004DF808EDFFF7E0FF94BF012000205DF8ED
:100B100008FB00BF4DF808EDFFF7CEFF94BF0120A2
:100B200000205DF808FB00BF4DF808EDFFF7C4FF9B
:100B300034BF012000205DF808FB00BF4FEA410CE4
:100B40007FEA6C5C02D150EA013C0AD14FEA430CC7
:100B50007FEA6C5C02D152EA033C02D14FF0000004
:100B600070474FF0010070474FEA410212F5001242
:100B700015D211D56FF47873B3EB625212D94FEAE4
:100B8000C12343F0004343EA505311F0004F23FACE
:100B900002F018BF404270474FF00000704750EA23
:100BA000013005D111F0004008BF6FF000407047E0
:100BB0004FF00000704700BF53B94AB9002908BF81
:100BC00000281CBF4FF0FF314FF0FF3000F070B92C
:100BD000ADF1080C6DE904CE00F006F8DDF804E094
:100BE000DDE9022304B070472DE9F047089E0D4669
:100BF00004460F46002B4AD18A42944665D9B2FA80
:100C000082F343B102FA03FCC3F120029F4020FAB1
:100C100002F217439C404FEA1C4E1FFA8CF5B7FBBB
:100C2000FEF1220C0EFB117742EA074201FB05F0B0
:100C300090420AD91CEB020201F1FF3780F01C81BF
:100C4000904240F2198102396244121AA4B2B2FBF6
:100C5000FEF00EFB102244EA024400FB05F5A5421B
:100C60000AD91CEB040400F1FF3280F00781A54291
:100C700040F204816444023840EA0140641B0021D0
:100C80001EB1DC400023C6E90043BDE8F0878B427B
:100C900008D9002E00F0ED800021C6E900050846C5
:100CA000BDE8F087B3FA83F1002949D1AB4202D302
:100CB000824200F2F880841A65EB03020120174695
:100CC000002EE2D0C6E90047DFE702B9FFDEB2FA44
:100CD00082F3002B40F090808A1A4FEA1C471FFADB
:100CE0008CFE0121B2FBF7F507FB1520220C42EA2E
:100CF00000420EFB05F0904208D91CEB020205F100
:100D0000FF3802D2904200F2CB804546121AA4B2BC
:100D1000B2FBF7F007FB102244EA02440EFB00FE90
:100D2000A64508D91CEB040400F1FF3202D2A64507
:100D300000F2BB801046A4EB0E0440EA05409FE79A
:100D4000C1F120078B4022FA07FC4CEA030C05FA9C
:100D500001F420FA07F3FD404FEA1C492343B5FB99
:100D6000F9F81FFA8CFE09FB18551C0C44EA0544DF
:100D700008FB0EF5A54202FA01F200FA01F00BD9C8
:100D80001CEB040408F1FF3A80F08880A54240F291
:100D90008580A8F102086444641B9DB2B4FBF9F39A
:100DA00009FB134445EA044403FB0EFEA64508D99B
:100DB0001CEB040403F1FF356CD2A6456AD9023B53
:100DC000644443EA0843A3FB0295A4EB0E04AC423F
:100DD000C846AE4656D353D056B1B0EB080264EBCA
:100DE0000E0404FA07F7CA40CC401743C6E9007462
:100DF00018460021BDE8F087C3F1200102FA03FC88
:100E000020FA01F225FA01F19D402A434FEA1C47DE
:100E10001FFA8CFEB1FBF7F007FB1015110C41EA2D
:100E2000054100FB0EF58D4204FA03F408D91CEBD2
:100E3000010100F1FF382FD28D422DD902386144D3
:100E4000491B92B2B1FBF7F507FB151142EA0142CB
:100E500005FB0EF1914208D91CEB020205F1FF38A7
:100E600016D2914214D9023D6244521A45EA004119
:100E700038E73146304608E73946E6E61046FBE6F5
:100E80004845A9D2B9EB020865EB0C0E013BA3E77C
:100E90004546EAE72B4694E74046D1E7D0467BE754
:100EA000023D624432E708460AE76444023842E7FA
:100EB000704700BF80B400AF234B1B6C224A43F045
:100EC000010313644FF0804347F6FF429A6241F2F8
:100ED00088324FF08043DA624FF08043DB684FF096
:100EE000804243F00103D360184B202283F81C2377
:100EF000164B1B68154A43F0805313604FF0804334
:100F00001B694FF0804223F0010313614FF08043CF
:100F10005B694FF0804243F0010353614FF080431F
:100F20001B684FF0804223F0010313604FF08043B1
:100F30001B684FF0804223F00103136000BFBD46E1
:100F40005DF8047B704700BF0038024000E100E01C
:100F500080B400AF0F4B00221A604FF080431B6932
:100F600003F00103002B0FD04FF080431B694FF0BB
:100F7000804223F0010313614FF080431B684FF060
:100F8000804223F00103136000BFBD465DF8047B7F
:100F9000704700BF8C00002080B400AF4FF080434A
:100FA0005B694FF0804243F0010353614FF080438F
:100FB0001B684FF0804243F001031360034B012292
:100FC0001A6000BFBD465DF8047B70478C000020AE
:100FD00080B594B000AF07F12003302200211846FD
:100FE00004F008FE07F10C0300221A605A609A60B0
:100FF000DA601A610023BB60274B1B6C264A43F062
:1010000080531364244B1B6C03F08053BB60BB689C
:1010100000237B60214B1B68204A43F4404313604C
:101020001E4B1B6803F440437B607B6801233B62DB
:101030004FF480337B620223BB634FF48003FB6376
:1010400004233B6448237B640223BB640423FB64C6
:1010500007F12003184602F041FC0346002B01D0A3
:1010600000F01EF80F23FB6002233B6180237B61AD
:101070004FF48053BB610023FB6107F10C03012196
:10108000184602F0A3FE0346002B01D000F008F83A
:1010900000BF5037BD4680BD0038024000700040A0
:1010A00080B400AF72B600BFFEE780B584B000AF79
:1010B00078607868FFF794F80346BB600023FB6014
:1010C00007E0FB687A68134400221A70FB6801335A
:1010D000FB60FA68BB689A42F3DB00BF00BF1037C1
:1010E000BD4680BD80B596B000AF7860396000F035
:1010F000ABF9214800F074FA00F0EEF91F4800F057
:101100006FFA00BF1E4800F09BFA0346002BF9D08F
:1011100000F0E2F91B4800F063FA00BF184800F045
:101120008FFA0346002BF9D000F0D6F907F108003A
:101130003B687A68144904F03DFD07F1080318463E
:1011400000F04EFA00BF114800F07AFA0346002B77
:10115000F9D000F0C1F90E4800F042FA00BF08488B
:1011600000F06EFA0346002BF9D000F0B5F900BF8D
:101170005837BD4680BD00BFA8730008B47300088F
:10118000BC730008C4730008D4730008EC73000833
:10119000F873000880B5A8B002AFF860B9607A6053
:1011A00000233B6307F1340360220021184604F05A
:1011B00021FD00233B6107F1140300221A605A60ED
:1011C0009A60DA601A615A611A83294800F008FAB5
:1011D00000BF284800F034FA0346002BF9D007F18D
:1011E00030007B680093BB68FA68234904F0E2FC96
:1011F00007F130031846FEF7F3FF0346C7F89430B3
:1012000007F11003D7F894201C49184604F0D2FCCB
:1012100007F11003184600F0E3F900BF184800F08A
:101220000FFA0346002BF9D007F13003184600F0FF
:10123000D7F900BF134800F003FA0346002BF9D09A
:1012400000BF114800F0FCF90346002BF9D007F16C
:1012500030031846FFF729FF07F110031846FFF780
:1012600024FF00F0F1F800BF9837BD4680BD00BFF5
:1012700008740008BC73000834740008587400082F
:10128000687400086C7400087874000880B5ADF5C7
:101290003E7D00AF07F53E73A3F53B73186007F57D
:1012A0003E73A3F53C73196007F53E73A3F53D73D8
:1012B0001A6007F53E73A3F5FE7300221A6004332B
:1012C0004FF4F8720021184604F094FC07F53E73C1
:1012D000A3F5077300221A60043300221A605A60D3
:1012E0009A60DA601A615A611A8307F53E73A3F5B2
:1012F000397300221A600433C4220021184604F016
:1013000079FC484800F06CF900BF474800F098F9B4
:101310000346002BF9D007F53E73A3F53B7307F1A5
:10132000FC001A68414904F045FC0023C7F8F43278
:101330001FE0D7F8F432591CD7F8F4329B0007F5B8
:101340003E72A2F53D72126813441B6807F1140047
:101350000A46374904F02EFC07F1140207F1FC039A
:101360001146184604F04EFCD7F8F4320133C7F8A2
:10137000F43207F53E73A3F53C73D7F8F4221B68EB
:101380009A42D6DB07F1FC031846FEF729FF034615
:101390001A4607F1FC031344264A118892781980F3
:1013A0009A7007F1FC031846FEF71AFF0346C7F8C8
:1013B000F03207F1DC03D7F8F0221F49184604F099
:1013C000F9FB07F1DC03184600F00AF900BF1B48DF
:1013D00000F036F90346002BF9D007F1FC0318465C
:1013E00000F0FEF800BF164800F02AF90346002B73
:1013F000F9D000BF134800F023F90346002BF9D0C1
:1014000007F1FC031846FFF750FE07F1DC0318460E
:10141000FFF74BFE00F018F800BF07F53E77BD461A
:1014200080BD00BF80740008BC730008A874000869
:10143000C0740008CC740008587400086874000870
:101440006C7400087874000880B400AF0D4B0E4A2D
:101450001A600E4B0E4A1A600E4B1B685A690D4BF0
:101460001B6842F001025A610A4B1B68DA68094B9B
:101470001B6842F02002DA6000BFBD465DF8047BC5
:10148000704700BF200100209000002024010020B0
:10149000D8000020D001002080B485B000AF034602
:1014A0003960FB713B681B6C013303F03F03FB6049
:1014B0003B685A6CFB689A4207D03B681B6C3A68E1
:1014C000F979D154FA683B681A6400BF1437BD46F5
:1014D0005DF8047B7047000080B400AF054B1A68CC
:1014E000044B1B68526C1A6400BFBD465DF8047B58
:1014F000704700BF2001002080B483B000AF114BC3
:101500001B681A6C0F4B1B685B6C9A4202D14FF040
:10151000FF3310E00B4B1A680A4B1B685B6CD35C03
:10152000FB71084B1B685B6C5A1C064B1B6802F076
:101530003F025A64FB7918460C37BD465DF8047BC0
:10154000704700BF2001002080B485B000AF7860F4
:101550007B68002B21DB144B1B681B6C013303F0F1
:101560003F03FB6000BF104B1B685A6CFB689A423C
:10157000F9D00D4B1A680C4B1B681B6C7968C9B20B
:10158000D154094B1B68FA681A64084B1B68DA6867
:10159000064B1B6842F08002DA6000BF1437BD467C
:1015A0005DF8047B704700BF24010020D0010020BB
:1015B00080B400AF094B1B681B6C9AB2074B1B68C9
:1015C0005B6C9BB2D31A9BB240339BB203F03F03D8
:1015D0001846BD465DF8047B704700BF200100201F
:1015E00080B582B000AF786006E07B685A1C7A60F4
:1015F0001B781846FFF7A8FF7B681B78002BF4D1F7
:1016000000BF00BF0837BD4680BD000080B400AFFA
:101610000A4B1B681A6C094B1B685B6C9A4202D11F
:101620004FF0FF3305E0054B1A68044B1B685B6CF9
:10163000D35C1846BD465DF8047B7047200100204E
:1016400080B584B000AF78600023FB607868FEF757
:10165000C7FD0346BB6000BFFFF7AAFF0346002B90
:10166000FAD0FFF7D3FF0146FB687A6813441B7872
:1016700099421AD01B4B1B685B6C5A1C194B1B6898
:1016800002F03F025A64E6E7FB680133FB60FFF7B4
:1016900033FFFA68BB689A4201D101231DE000BF05
:1016A000FFF786FF0346002BFAD0FFF7AFFF014696
:1016B000FB687A6813441B789942E5D0FA68BB68E6
:1016C0009A4202D00023FB60C5E7FA68BB689A42E1
:1016D00001D1012301E04FF0FF3318461037BD461A
:1016E00080BD00BF2001002080B586B000AF7860CB
:1016F0007B681B681B687B617B681B68DB683B61E0
:101700007B6903F02003002B13D03B6903F0200317
:10171000002B0ED07B681B681B687B681B685B68AE
:10172000FB731C4B1A68FB7B11461846FFF7B4FE8F
:101730002CE07B6903F08003002B27D03B6903F08A
:101740008003002B22D0144B1A6C134B5B6C9A4213
:1017500008D17B681B68DA687B681B6822F080020E
:10176000DA6012E00C4B5B6C0B4AD35CBB730A4B28
:101770005B6C013303F03F03074A53647B681B68CB
:101780001B687B681B68BA7B5A6000BF1837BD4670
:1017900080BD00BF20010020D8000020B0B58EB071
:1017A00000AF786000F032FE40F2B113FB62072315
:1017B00087F83030072387F83130012387F832303B
:1017C000FF2387F83630642387F837300823BB8639
:1017D0000E4BFB6001233B820C4B7B6102233B835E
:1017E0000A4BFB6104233B84094B7B627B681D46EB
:1017F00007F10C040FCC0FC50FCC0FC594E8070000
:1018000085E8070078683837BD46B0BD000402405F
:101810002801002080B584B000AF786039600121D4
:10182000786800F0FEF90346BB73BB7BFB733B6833
:10183000002B07D1BB7B23F00703FB737B680022DF
:10184000DA613EE03B68012B0CD197F90E3023F0B2
:1018500007035BB243F001035BB2FB737B680122B9
:10186000DA612EE03B68032B0CD197F90E3023F0A0
:1018700007035BB243F003035BB2FB737B68032295
:10188000DA611EE03B68052B0CD197F90E3023F08E
:1018900007035BB243F005035BB2FB737B68052271
:1018A000DA610EE03B68062B0BD197F90E3023F07E
:1018B00007035BB243F006035BB2FB737B6806224F
:1018C000DA61FB7B1A460121786800F0C4F900BF99
:1018D0001037BD4680BD80B584B000AFF860B960F8
:1018E0003B601346FB80FB681868FB689B880022FE
:1018F000194601F0D9FFFB689869FA884FF4FA633A
:10190000B96802F016FD00BFFB689B69184603F03A
:10191000FFF80346012BF7D1FB6898693A8B4FF427
:10192000FA63396802F041FE00BFFB689B69184604
:1019300003F0EEF80346012BF7D1FB681868FB684B
:101940009B880122194601F0AFFF00BF1037BD464A
:1019500080BD80B584B000AFF860B9603B601346CD
:10196000FB80FB681868FB689B880022194601F021
:101970009BFFFB689869FA884FF4FA63B96802F034
:10198000D8FC00BFFB689B69184603F0C1F803460A
:10199000012BF7D1FB6898693A8B4FF4FA633968E9
:1019A00002F0C7FC00BFFB689B69184603F0B0F863
:1019B0000346012BF7D1FB681868FB689B8801225E
:1019C000194601F071FF00BF1037BD4680BD80B5DC
:1019D00084B000AF78600B46FB702621786800F079
:1019E00020F90346BB73FB78002B04D0BB7B43F08C
:1019F0000803FB7303E0BB7B23F00803FB73FB7B53
:101A00001A462621786800F026F90A2001F030FCF9
:101A100000BF1037BD4680BD80B596B000AF78607E
:101A2000174A07F1080311465022184604F026F918
:101A30007B6893F824301A46012393401846FEF73A
:101A400079FD7B6893F82530DB0058333B44503BED
:101A5000D3E90023FEF702FF02460B461046194663
:101A6000FFF782F80346102BCCBF01230023DBB223
:101A700019467868FFF7ABFF00BF5837BD4680BDF9
:101A8000D074000880B584B000AF786039603B68DE
:101A9000DB045B11FB60FB681B0CFB72FB7A1A46D4
:101AA0000621786800F0D7F8052001F0E1FBFB681B
:101AB0001B0AFB72FB7A1A460721786800F0CBF804
:101AC000052001F0D5FBFB68FB72FB7A1A46082162
:101AD000786800F0C0F8052001F0CAFB00BF10379D
:101AE000BD4680BD80B584B000AF786039603B688A
:101AF0000C2B01DD0C233B603B68062B01DC07232C
:101B00003B601E21786800F08CF80346FB730A20C6
:101B100001F0AEFB3B68DBB21B01DAB2FB7B03F0EA
:101B20000F03DBB21344BB73BB7B1A461E217868DC
:101B300000F091F80A2001F09BFB7868FFF76CFF3A
:101B400000BF1037BD4680BD80B582B000AF786061
:101B50000B46FB70FB781A460921786800F07BF889
:101B60000A2001F085FB00BF0837BD4680BD00009C
:101B700080B584B000AF78600B46FB700023FB7328
:101B8000FB782C2B01D82D23FB70FB78F02B01D98F
:101B9000F023FB70FB78782B09D8FB782D3B124A99
:101BA00082FB03125210DB17D31AFB730BE0FB7896
:101BB000F02B08D8FB781E330B4A82FB03129210DD
:101BC000DB17D31AFB73FB7B2033FB73FB7B1A46BB
:101BD0000B21786800F03FF80A2001F049FB00BFB4
:101BE0001037BD4680BD00BF6766666680B584B0AD
:101BF00000AF78601E21786800F013F80346FB738D
:101C0000FB7B43F00703BB73BB7B1A461E2178683E
:101C100000F021F80A2001F02BFB00BF1037BD4671
:101C200080BD80B586B002AF78600B46FB70FB7854
:101C300003F07F03DBB2BB7307F10F0307F10E0163
:101C40000122009201227868FFF745FEFB7B1846CF
:101C50001037BD4680BD80B586B002AF78600B46B8
:101C6000FB701346BB70FB7863F07F03DBB2BB7382
:101C7000BB78FB7307F10F0307F10E0101220092FD
:101C800001227868FFF765FE00BF1037BD4680BDB2
:101C900080B586B000AFF8607A601A460B46FB72DA
:101CA0001346BB72FB7A63F07F03DBB2FB75FB6804
:101CB0001868FB689B880022194601F0F5FDFB6857
:101CC000986907F117014FF4FA63012202F031FB22
:101CD00000BFFB689B69184602F01AFF0346012B00
:101CE000F7D1FB689869BB7A9AB24FF4FA637968C6
:101CF00002F01FFB00BFFB689B69184602F008FF5B
:101D00000346012BF7D1FB681868FB689B8801220A
:101D1000194601F0C9FD00BF1837BD4680BD80B42B
:101D200083B000AF7860012318460C37BD465DF8DC
:101D3000047B704780B586B000AFF860B96011468B
:101D40001A460B46FB711346BB80FB68DB697B615F
:101D50000121F868FFF75EFD0E21F868FFF761FFCB
:101D60000346FB74FB7C1A460D21F868FFF773FFEE
:101D7000FB791A462221F868FFF76DFFFB79BA68F4
:101D80000021F868FFF784FF0321F868FFF742FDA0
:101D90001221F868FFF745FF0346FB74FB7C03F054
:101DA0000803002B0AD0FF221221F868FFF753FF27
:101DB0007969F868FFF72EFD01230FE0BB88013B2E
:101DC000BB80BB88002B05D17969F868FFF722FD3D
:101DD000002303E0012001F04BFAD9E71846183739
:101DE000BD4680BD80B582B000AF786005217868BF
:101DF000FFF710FD00BF0837BD4680BD90B589B024
:101E000000AFF860B9601346FB710023FB77002335
:101E1000BB6107E0BB69BA68134400221A70BB6952
:101E20000133BB61FB79BA699A42F3DB0121F8689F
:101E3000FFF7F0FC1221F868FFF7F3FE0346FB748E
:101E4000FB7C03F04003002B2FD0FF221221F86807
:101E5000FFF701FF1321F868FFF7E3FE0346BB74A9
:101E60001021F868FFF7DDFE0346FB74FB7C1A4681
:101E70000D21F868FFF7EFFEBA7CFB79934228BF8B
:101E80001346FB7700237B610BE07B69BA68D418AB
:101E90000021F868FFF7C5FE034623707B69013314
:101EA0007B61FB7F7A699A42EFDB0521F868FFF7D7
:101EB000B1FCFB7F18462437BD4690BD80B584B089
:101EC00000AF78607868FFF72AFF0346002B00F028
:101ED000968000217868FFF79DFC0A2001F0C8F980
:101EE00001217868FFF79DFE0346FB730A2001F08D
:101EF000BFF9FB7B63F07F03BB73BB7B1A460121F9
:101F00007868FFF7A8FE642001F0B2F97B681B6ACD
:101F100019467868FFF7B6FD7B6893F82A301946B2
:101F20007868FFF711FE7B6893F82B3019467868C4
:101F3000FFF71EFE23220C217868FFF78CFE7868DD
:101F4000FFF754FE7B6893F8243019467868FFF752
:101F5000C9FDFF221F217868FFF77DFE0023BB73B8
:101F60007B6893F825301B01DAB27B6893F8263042
:101F70005B00DBB21344BB73BB7B1A461D21786840
:101F8000FFF769FE7868FFF747FD7B681B8D1B0A2A
:101F90009BB2DBB21A4620217868FFF75CFE7B68B3
:101FA0001B8DDBB21A4621217868FFF754FE4021D1
:101FB0007868FFF736FE0346FB73FB7B43F03F0375
:101FC000BB73BB7B1A4640217868FFF744FE0121B2
:101FD0007868FFF71FFC7B680122DA610A2001F0B4
:101FE00047F942217868FFF71CFE0346FB73FB7B31
:101FF000122B01D1C82304E04FF4CA7301E040F270
:10200000F71318461037BD4680BD000080B500AFFD
:1020100000F074F8364B5B6C354A43F480735364BC
:10202000344B5B68334A23F480335360314B5B6835
:10203000304A23F4003353602F4B5B682E4A23F061
:10204000007353602C4B5B682B4A23F08073536002
:10205000294B5B68284A43F480735360264B5B68C6
:10206000254A43F020035360234B1B69224A23F087
:1020700020031361204B1B691F4A23F010031361D7
:102080001D4B1B691C4A43F0080313611A4B9B68E4
:10209000194A23F480639360174B9B68164A23F414
:1020A00000639360144BDB6A134A23F40003D3628A
:1020B000114BDB6A104A23F48003D3620E4BDB6AB8
:1020C0000D4A23F40013D3620B4BDB6A0A4A23F454
:1020D0008013D362084B5B6B074A43F001035363E1
:1020E000054B9B68044A43F00203936000BF80BD28
:1020F00000380240002301400020014080B400AFBE
:102100000B4B1B6B0A4A43F001031363094B1B681B
:10211000084A43F008031360064B1B68054A43F066
:102120000403136000BFBD465DF8047B704700BF29
:10213000003802400000024080B400AF264B1B6C08
:10214000254A43F400131364234B1B6B224A43F0CC
:1021500002031363214B1B68204A43F420231360BE
:102160001E4B5B681D4A43F4407353601B4B9B68D6
:102170001A4A43F470239360184BDB68174A43F400
:10218000A023D360154B5B6A144A43F044035362A7
:10219000134B1B68124A43F400431360104B1B6837
:1021A0000F4A23F4004313600D4B5B680C4A43F065
:1021B000240353600A4BB422DA61094B25221A62C8
:1021C000074B1B68064A43F00103136000BFBD467E
:1021D0005DF8047B704700BF0038024000040240F5
:1021E0000054004080B483B000AF0346FB7100BFD1
:1021F0000B4B5B6903F08003002BF9D0084AFB7995
:10220000136100BF064B5B6903F00403002BF9D098
:1022100000BF00BF0C37BD465DF8047B704700BFB0
:102220000054004080B485B000AF0346FB710C4AF7
:10223000FB79136100BF0A4B5B6903F00203002BBB
:10224000F9D0074B5B69DAB2054B9B69DBB21343EC
:10225000FB7300BF1437BD465DF8047B704700BFB9
:102260000054004080B400AF0C4B1B680B4A43F491
:1022700080631360094B1B68084A43F48073136042
:1022800000BF064B5B6903F00103002BF9D000BFD0
:1022900000BFBD465DF8047B704700BF005400409E
:1022A00080B400AF054B1B68044A43F4007313600D
:1022B00000BFBD465DF8047B704700BF005400407E
:1022C00080B485B000AF03463960FB711346BB7123
:1022D000BB79FB60BB79012B2FD14B4AFB79136192
:1022E00000BF494B5B6903F00203002BF9D0464B5A
:1022F0001B68454A23F480631360434B5B69DAB281
:10230000414B9B69DBB21343BB723F4B1B683E4A98
:1023100043F40073136000BF3B4B5B6903F0400361
:10232000002BF9D0384B1969BA79FB68D31A1A46D1
:102330003B681344CAB21A7060E0334AFB791361F8
:1023400000BF314B5B6903F00203002BF9D02E4B29
:102350005B69DAB22C4B9B69DBB21343FB7219E069
:1023600000BF294B5B6903F04003002BF9D0264BDB
:102370001969BA79FB68D31A1A463B681344CAB282
:102380001A70214B1B68204A43F480631360FB687A
:10239000013BFB60FB68022BE2DC00BF1A4B5B6970
:1023A00003F04003002BF9D0174B1969BA79FB6889
:1023B000D31A1A463B681344CAB21A70124B1B68F0
:1023C000114A23F4806313600F4B1B680E4A43F4D9
:1023D00000731360FB68013BFB6000BF0A4B5B6945
:1023E00003F04003002BF9D0074B1969BA79FB6859
:1023F000D31A1A463B681344CAB21A7000BF143786
:10240000BD465DF8047B70470054004080B500AFC6
:10241000174B184A1A60164B4FF482725A60144BCD
:1024200000229A60124B0022DA60114B00221A61DE
:102430000F4B00225A610E4B4FF400729A610C4B05
:102440000822DA610A4B00221A62094B00225A6202
:10245000074B00229A62064B0A22DA62044800F017
:102460000BF800F051F8024801F0D0FE00BF80BD2B
:10247000280100200030014080B58AB000AF7860AC
:1024800007F1140300221A605A609A60DA601A6138
:102490007B681B68194A93422BD100233B61184B80
:1024A0005B6C174A43F480535364154B5B6C03F425
:1024B00080533B613B690023FB60114B1B6B104A4F
:1024C00043F0010313630E4B1B6B03F00103FB602E
:1024D000FB68E0237B610223BB610023FB610323D4
:1024E0003B6205237B6207F114031946054801F09E
:1024F00057F800BF2837BD4680BD00BF00300140FF
:10250000003802400000024080B58AB000AF07F1F9
:10251000140300221A605A609A60DA601A6100237C
:102520003B61344B1B6B334A43F004031363314B61
:102530001B6B03F004033B613B690023FB602D4BE5
:102540001B6B2C4A43F0800313632A4B1B6B03F075
:102550008003FB60FB680023BB60264B1B6B254A96
:1025600043F001031363234B1B6B03F00103BB60B8
:10257000BB6800237B601F4B1B6B1E4A43F00203AA
:1025800013631C4B1B6B03F002037B607B6801220F
:102590000321194801F088F94FF400537B614FF48F
:1025A0000413BB610023FB6107F1140319461348B0
:1025B00000F0F6FF03237B610123BB610023FB6175
:1025C00000233B6207F1140319460B4800F0E8FFB3
:1025D00004237B614FF48813BB610023FB6107F187
:1025E00014031946044800F0DBFF00BF2837BD463E
:1025F00080BD00BF003802400004024000080240D5
:1026000080B582B000AF0346FB710B46BB71134629
:102610007B71FFF727FEFB791846FFF703FEBB79B6
:102620001846FFF7DFFD7B791846FFF7DBFDFFF764
:1026300037FE00BF0837BD4680BD80B582B000AF11
:102640003A601A460346FB710B46BB7113467B7119
:10265000FFF708FEFB791846FFF7E4FDBB79184643
:10266000FFF7C0FDFFF7FEFDFB7901337A7939688A
:102670001846FFF725FEFFF713FE00BF0837BD46DB
:1026800080BD000080B584B000AF3A1D06233B2119
:10269000D020FFF7D2FF3B791B021AB27B791BB225
:1026A00013431AB22E4B1A80BB791B021AB2FB7964
:1026B0001BB213431AB22B4B1A803B7A1B021AB27D
:1026C0007B7A1BB213431AB2274B1A80274B1B6825
:1026D00007EE903AB8EEE77ADFED256AC6EE877A24
:1026E000C7ED037A1E4BB3F9003007EE903AF8EECF
:1026F000E76AD7ED037A86EEA77A1E4BD3ED007A10
:1027000077EE677A1C4BC3ED007A164BB3F90030B5
:1027100007EE903AF8EEE76AD7ED037A86EEA77AED
:10272000164BD3ED007A77EE677A154BC3ED007A3E
:102730000D4BB3F9003007EE903AF8EEE76AD7EDAB
:10274000037A86EEA77A0F4BD3ED007A77EE677A9D
:102750000D4BC3ED007A00BF1037BD4680BD00BFF2
:102760008001002082010020840100200000002060
:10277000004CFF46940100208801002098010020B1
:102780008C0100209C0100209001002080B582B0C7
:1027900000AFFFF7D1FCBA1D01237521D020FFF750
:1027A0004CFFBB79682B1FD10023FB71FB791A46C4
:1027B0006B21D020FFF724FF0723FB71FB791A461A
:1027C0001921D020FFF71CFF0023FB71FB791A466B
:1027D0001C21D020FFF714FF0023FB71FB791A4660
:1027E0001B21D020FFF70CFF00BF0837BD4680BD7E
:1027F00080B500AFFFF70AFC00BF80BD80B582B096
:1028000000AF0F4B9B680E4A43F001039360012019
:1028100000F02EFD0A4B9B68094A43F08043936009
:1028200000BF074B1B6803F00203002BF9D0044BD9
:10283000DB6C7B607B6818460837BD4680BD00BFF7
:102840000020014080B500AFFFF7E0FB00BF80BD76
:1028500080B582B000AF0F4B9B680E4A43F0010376
:102860009360002000F004FD0A4B9B68094A43F086
:102870008043936000BF074B1B6803F00203002BEB
:10288000F9D0044BDB6C7B607B689BB21846083741
:10289000BD4680BD0020014080B500AF00F06EFA5B
:1028A0000123002B02D000F005F8F9E700F018F939
:1028B000F6E70000B0B5A0B000AF854B07F14C04BF
:1028C0001D460FCD0FC42B682360002387F87B3093
:1028D0000023FB67EAE000237B67FEF75DFBD9E09E
:1028E00007F14003052219467A48FFF787FA0346A5
:1028F00087F87B3000F0B8FA97F87B30042B40F271
:10290000C580FB6F002B25D1582387F83C3097F802
:10291000402097F83C309A420CBF01230023DBB2E1
:102920003B663B6E002B00F0B18007F1300307F1EE
:10293000400207CA03C31A80002387F83A3007F120
:102940003003184600F006FB07F13003FB64012357
:102950007B67A8E0FB6F012B25D1592387F83C301A
:1029600097F8402097F83C309A420CBF012300238F
:10297000DBB27B667B6E002B00F0888007F12403BE
:1029800007F1400207CA03C31A80002387F82E30DC
:1029900007F12403184600F0DDFA07F124033B6534
:1029A00001237B677FE0FB6F022B24D15A2387F83A
:1029B0003C3097F8402097F83C309A420CBF0123F6
:1029C0000023DBB2BB66BB6E002B5FD007F11803A0
:1029D00007F1400207CA03C31A80002387F8223098
:1029E00007F11803184600F0B5FA07F118037B65E4
:1029F00001237B6757E0FB6F032B23D14D2387F81F
:102A00003C3097F8402097F83C309A420CBF0123A5
:102A10000023DBB2FB66FB6E002B37D007F10C0303
:102A200007F1400207CA03C31A800023BB7507F1F0
:102A30000C03184600F08EFA07F10C03BB65012366
:102A40007B6730E0FB6F042B20D1562387F83C30A6
:102A500097F8402097F83C309A420CBF012300239E
:102A6000DBB23B673B6F002B10D03B4607F14002C7
:102A700007CA03C31A800023BB723B46184600F006
:102A800069FA3B46FB6501237B670CE04FF4FA7063
:102A900000F0EEFB104B1B68002B7FF421AF7B6F27
:102AA000002B7FF41DAFFB6F0133FB67FB6F042B23
:102AB0007FF711AF07F14C031A4605210748FEF7CF
:102AC000E5FB00F0D1F900BF8037BD46B0BD00BFC7
:102AD0003C750008A00100208C0000202075000833
:102AE000B0B59AB000AF00F0BFF90023022B00F0A0
:102AF000CA80022B00F32181002B02D0012B67D06A
:102B00001BE1FFF7BFFD924BD3ED007A07F14003C5
:102B100002211846B0EE670A00F0B6F98D4BD3EDEE
:102B2000007A07F1380302211846B0EE670A00F078
:102B3000ABF9894BD3ED007A07F130030221184637
:102B4000B0EE670A00F0A0F907F140037B6207F1DD
:102B50003803BB6207F13003FB6207F124031A4616
:102B600003217E48FEF792FB00F07EF943F69820A1
:102B700000F07EFB07F1400307F118005822784966
:102B800003F018F807F1380307F10C0059227449D3
:102B900003F010F807F1300338465A22704903F069
:102BA00009F807F11801642306226E48FFF7C2F8FE
:102BB00007F10C01642306226A48FFF7BBF8394687
:102BC000642306226748FFF7B5F800F04DF9B4E03A
:102BD000FFF73EFE03467B66786EFDF7ABFC4FF0D9
:102BE0000002614BFDF710FD02460B4610461946E8
:102BF00055A3D3E90023FDF731FE02460B461446E8
:102C00001D465A4B1846FDF7A7FC02460B462046C8
:102C10002946FDF741FB02460B4610461946FDF7D3
:102C2000A3FF0346002BB8BF5B4207EE903AF8EED5
:102C3000E77AC7ED177A07F148030221184697EDA6
:102C4000170A00F021F907F148031A460121484804
:102C5000FEF7A0FA00F008F907F1480307F1500069
:102C600056223F4902F0A6FF07F150014FF47A7354
:102C700006223C48FFF75EF800F0F6F843F698208D
:102C800000F0F6FA59E0FFF7B9FD7866786EFDF7C7
:102C900051FC4FF00002344BFDF7B6FC02460B46E8
:102CA0001046194628A3D3E90023FDF7D7FD0246B5
:102CB0000B4614461D462F4B1846FDF74DFC0246A9
:102CC0000B4620462946FDF7E7FA02460B4610461A
:102CD0001946FDF749FF0346002BB8BF5B4207EEDC
:102CE000903AF8EEE77AC7ED187A07F14803022127
:102CF000184697ED180A00F0C7F807F148031A467E
:102D000001211D48FEF746FA00F0AEF807F148032E
:102D100007F150004D22124902F04CFF07F150011B
:102D20004FF47A7306220F48FFF704F800F09CF87E
:102D300043F6982000F09CFA00BF00BF6837BD46FC
:102D4000B0BD00BFAFF300800000000000F88F406E
:102D5000880100208C01002090010020507500089F
:102D600064750008A0010020000014400000A0418C
:102D70006C7500087B14A04180750008B0B58EB05A
:102D800000AFFEF725F900F085F9FEF793F800F0A3
:102D90004FF800F069F8234C3B461846FEF7FEFC5E
:102DA00025463C460FCC0FC50FCC0FC594E8070055
:102DB00085E8070000237B631A48FFF77FF8034686
:102DC0007B6308E01748FFF779F803467B6341F21D
:102DD000883000F04DFA7B6B002BF3D0124913487A
:102DE000FEF780F90F48FEF7FDFF0123002B14D1F9
:102DF00000F03AF80023022B0CD0022B0DDC002B44
:102E000002D0012B03D008E0FFF7C0FC05E0FFF77C
:102E100019FD02E0FFF7ECFC00BF00BF3837BD46EC
:102E2000B0BD00BFA001002094750008A075000887
:102E300080B400AF0B4B45F255521A60094B072284
:102E40005A60084B4FF6FF729A60064B4AF6AA2268
:102E50001A60044B4CF6CC421A6000BFBD465DF8C8
:102E6000047B70470030004080B400AF044B4AF64A
:102E7000AA221A6000BFBD465DF8047B704700BF00
:102E80000030004000000000B0B58CB002AF87ED0C
:102E9000030AB8607960D7ED037AF5EEC07AF1EEF7
:102EA00010FA4CBF01230023DBB27B62D7ED037A1B
:102EB000F0EEE77AC7ED087AD7ED087AFDEEE77A0B
:102EC00017EE903AFB61FB6907EE903AF8EEE77A6D
:102ED00097ED087A77EE677AC7ED067AB869FDF75D
:102EE0003BFB04460D467868FDF724FB02460B4683
:102EF00043EC112B9FED120B03F010FB53EC102B46
:102F000020462946FDF780FB02460B46104619462F
:102F1000FDF72AFE03467B617B6A002B01D00A4A3B
:102F200000E00A4A7B6901937B680093FB690849CA
:102F3000B86802F03FFE00BF2837BD46B0BD00BFF5
:102F40000000000000002440A8750008AC750008CF
:102F5000B075000880B584B000AF78607868FDF780
:102F60003FF90346BB600023FB600BE0FB680133C5
:102F70007A681A44FB6879680B4412781A70FB6807
:102F80000133FB60FA68BB689A42EFDB00BF00BF09
:102F90001037BD4680BD80B400AFFEE780B400AFFF
:102FA000FEE780B400AFFEE780B400AFFEE780B478
:102FB00000AFFEE780B400AF00BFBD465DF8047B04
:102FC000704780B400AF00BFBD465DF8047B70471A
:102FD00080B400AF00BFBD465DF8047B704780B58C
:102FE00000AF00F025F900BF80BD000080B500AF44
:102FF0000348FEF779FB024801F016FF00BF80BDD1
:10300000D001002080B586B000AF7860144A154B1F
:10301000D31A7B617B693B61134B1B68002B02D188
:10302000114B124A1A60104B1A687B6813443A69B4
:103030009A4207D202F0F6FD03460C221A604FF0C6
:10304000FF3309E0084B1B68FB60074B1A687B687D
:103050001344054A1360FB6818461837BD4680BD07
:103060000000022000040000CC01002060030020CA
:1030700080B400AF064BD3F88830054A43F47003A0
:10308000C2F8883000BFBD465DF8047B704700BFC2
:1030900000ED00E080B500AF0E4B0F4A1A600D4BFB
:1030A0004FF4E1325A600B4B00229A60094B002228
:1030B000DA60084B00221A61064B0C225A61054B5C
:1030C00000229A61034B0022DA61024801F05EFEA1
:1030D00000BF80BDD00100200010014080B58AB043
:1030E00000AF786007F1140300221A605A609A60FA
:1030F000DA601A617B681B681D4A934234D1002351
:103100003B611C4B5B6C1B4A43F010035364194B2F
:103110005B6C03F010033B613B690023FB60154BC4
:103120001B6B144A43F001031363124B1B6B03F038
:103130000103FB60FB684FF4C0637B610223BB614A
:103140000023FB6103233B6207237B6207F1140327
:103150001946094800F024FA00220021252000F039
:1031600057F9252000F070F900BF2837BD4680BD13
:10317000001001400038024000000240DFF834D067
:103180000D480E490E4A002302E0D458C4500433BF
:10319000C4188C42F9D30B4A0B4C002301E0136096
:1031A0000432A242FBD3FFF763FF02F041FDFFF7B9
:1031B00073FB704700000220000000207000002018
:1031C000487600087000002060030020FEE7000041
:1031D00080B582B000AF7860124B1A68124B1B7832
:1031E00019464FF47A73B3FBF1F3B2FBF3F31846CD
:1031F00000F038F90346002B01D001230EE07B6874
:103200000F2B0AD8002279684FF0FF3000F000F948
:10321000064A7B681360002300E001231846083744
:10322000BD4680BD040000200C00002008000020E6
:1032300080B400AF064B1B781A46064B1B6813443C
:10324000044A136000BFBD465DF8047B704700BFB1
:103250000C0000201402002080B400AF034B1B6858
:103260001846BD465DF8047B704700BF140200207D
:1032700080B584B000AF7860FFF7EEFFB8607B6880
:10328000FB60FB68B3F1FF3F05D00A4B1B781A4681
:10329000FB681344FB6000BFFFF7DEFF0246BB681C
:1032A000D31AFA689A42F7D800BF00BF1037BD465C
:1032B00080BD00BF0C00002080B400AF044BDB6871
:1032C0001B0A03F007031846BD465DF8047B7047F0
:1032D00000ED00E080B483B000AF0346FB7197F9C6
:1032E0000730002B0BDBFB7903F01F02074997F92E
:1032F00007305B09012000FA02F241F8232000BFE9
:103300000C37BD465DF8047B704700BF00E100E06C
:1033100080B483B000AF03463960FB7197F9073082
:10332000002B0ADB3B68DAB20C4997F9073012012F
:10333000D2B20B4483F800230AE03B68DAB20849B2
:10334000FB7903F00F03043B1201D2B20B441A764F
:1033500000BF0C37BD465DF8047B704700E100E01C
:1033600000ED00E080B489B000AFF860B9607A6029
:10337000FB6803F00703FB61FB69C3F10703042B40
:1033800028BF0423BB61FB690433062B02D9FB6908
:10339000033B00E000237B614FF0FF32BB6902FA80
:1033A00003F3DA43BB681A407B699A404FF0FF3160
:1033B0007B6901FA03F3D9437B680B40134318463A
:1033C0002437BD465DF8047B7047000080B582B0AD
:1033D00000AF78607B68013BB3F1807F01D30123AC
:1033E0000FE00A4A7B68013B53600F214FF0FF302A
:1033F000FFF78EFF054B00229A60044B07221A60EC
:10340000002318460837BD4680BD00BF10E000E02D
:1034100080B586B000AF0346B9607A60FB730023C5
:103420007B61FFF749FF78617A68B9687869FFF7CF
:1034300099FF024697F90F3011461846FFF768FFCB
:1034400000BF1837BD4680BD80B582B000AF0346CF
:10345000FB7197F907301846FFF73CFF00BF0837AC
:10346000BD4680BD80B582B000AF78607868FFF758
:10347000ADFF034618460837BD4680BD80B584B011
:1034800000AF78607B689B6DFB60FFF7E5FEB8607E
:103490007B6893F83530DBB2022B08D07B68802242
:1034A0005A657B68002283F83420012352E07B6850
:1034B0001B681A687B681B6822F016021A607B681A
:1034C0001B685A697B681B6822F080025A617B681E
:1034D0001B6C002B03D17B689B6C002B07D07B6897
:1034E0001B681A687B681B6822F008021A607B68F8
:1034F0001B681A687B681B6822F001021A6013E0DF
:10350000FFF7AAFE0246BB68D31A052B0CD97B68CD
:1035100020225A657B68032283F835207B680022CD
:1035200083F83420032315E07B681B681B6803F0D5
:103530000103002BE4D17B68DB6D3F229A40FB68DE
:103540009A607B68012283F835207B68002283F82B
:103550003420002318461037BD4680BD80B483B0A8
:1035600000AF78607B6893F83530DBB2022B04D073
:103570007B6880225A6501230CE07B68052283F872
:1035800035207B681B681A687B681B6822F0010283
:103590001A60002318460C37BD465DF8047B70475F
:1035A00080B489B000AF7860396000237B6100236C
:1035B0003B610023BB610023FB6159E10122FB69F0
:1035C00002FA03F37B613B681B687A6913403B6135
:1035D0003A697B699A4240F048813B685B6803F036
:1035E0000303012B05D03B685B6803F00303022B48
:1035F00030D17B689B68BB61FB695B00032202FAE8
:1036000003F3DB43BA691340BB613B68DA68FB69CB
:103610005B0002FA03F3BA691343BB617B68BA69C2
:103620009A607B685B68BB610122FB6902FA03F365
:10363000DB43BA691340BB613B685B681B0903F05D
:103640000102FB6902FA03F3BA691343BB617B68A9
:10365000BA695A603B685B6803F00303032B17D019
:103660007B68DB68BB61FB695B00032202FA03F342
:10367000DB43BA691340BB613B689A68FB695B0036
:1036800002FA03F3BA691343BB617B68BA69DA6073
:103690003B685B6803F00303022B23D1FB69DA0864
:1036A0007B68083253F82230BB61FB6903F00703E3
:1036B0009B000F2202FA03F3DB43BA691340BB619C
:1036C0003B681A69FB6903F007039B0002FA03F3E6
:1036D000BA691343BB61FB69DA087B680832B969D0
:1036E00043F822107B681B68BB61FB695B00032207
:1036F00002FA03F3DB43BA691340BB613B685B68C2
:1037000003F00302FB695B0002FA03F3BA69134397
:10371000BB617B68BA691A603B685B6803F440333D
:10372000002B00F0A2800023FB60574B5B6C564AD5
:1037300043F480435364544B5B6C03F48043FB605D
:10374000FB68524AFB699B08023352F82330BB6185
:10375000FB6903F003039B000F2202FA03F3DB4330
:10376000BA691340BB617B68494A934219D07B68B0
:10377000484A934213D07B68474A93420DD07B68F6
:10378000464A934207D07B68454A934201D10423BD
:1037900008E0072306E0032304E0022302E00123FC
:1037A00000E00023FA6902F0030292009340BA6934
:1037B0001343BB613549FB699B080233BA6941F881
:1037C0002320384B9B68BB613B69DB43BA691340DC
:1037D000BB613B685B6803F48013002B03D0BA69BC
:1037E0003B691343BB612F4ABB6993602D4BDB6878
:1037F000BB613B69DB43BA691340BB613B685B68F3
:1038000003F40013002B03D0BA693B691343BB6177
:10381000244ABB69D360234B5B68BB613B69DB43D4
:10382000BA691340BB613B685B6803F40033002B4B
:1038300003D0BA693B691343BB611A4ABB69536041
:10384000184B1B68BB613B69DB43BA691340BB6122
:103850003B685B6803F48033002B03D0BA693B6993
:103860001343BB610F4ABB691360FB690133FB6102
:10387000FB690F2B7FF6A2AE00BF00BF2437BD4609
:103880005DF8047B704700BF0038024000380140FB
:10389000000002400004024000080240000C024008
:1038A00000100240003C014080B483B000AF78605B
:1038B0000B467B8013467B707B78002B03D07A8885
:1038C0007B689A6103E07B881A047B689A6100BF79
:1038D0000C37BD465DF8047B7047000080B586B0AC
:1038E00000AF78607B68002B01D1012367E27B6821
:1038F0001B6803F00103002B75D0884B9B6803F015
:103900000C03042B0CD0854B9B6803F00C03082B95
:1039100012D1824B5B6803F48003B3F5800F0BD1A7
:103920007E4B1B6803F40033002B5BD07B685B6825
:10393000002B57D1012342E27B685B68B3F5803FDF
:1039400006D1764B1B68754A43F4803313601DE043
:103950007B685B68B3F5A02F0CD1704B1B686F4A76
:1039600043F4802313606D4B1B686C4A43F480332F
:1039700013600BE0694B1B68684A23F480331360C3
:10398000664B1B68654A23F4802313607B685B6881
:10399000002B13D0FFF760FC386108E0FFF75CFCF8
:1039A00002463B69D31A642B01D9032307E25B4B20
:1039B0001B6803F40033002BF0D014E0FFF74CFC3D
:1039C000386108E0FFF748FC02463B69D31A642BD4
:1039D00001D90323F3E1514B1B6803F40033002B9F
:1039E000F0D100E000BF7B681B6803F00203002BEE
:1039F00063D04A4B9B6803F00C03002B0BD0474B62
:103A00009B6803F00C03082B1CD1444B5B6803F448
:103A10008003002B16D1414B1B6803F00203002BDF
:103A200005D07B68DB68012B01D00123C7E13B4B4C
:103A30001B6823F0F8027B681B69DB0037491343DE
:103A40000B603AE07B68DB68002B20D0344B01220E
:103A50001A60FFF701FC386108E0FFF7FDFB024642
:103A60003B69D31A022B01D90323A8E12B4B1B6816
:103A700003F00203002BF0D0284B1B6823F0F80260
:103A80007B681B69DB00254913430B6015E0244B61
:103A900000221A60FFF7E0FB386108E0FFF7DCFB6B
:103AA00002463B69D31A022B01D9032387E11B4B42
:103AB0001B6803F00203002BF0D17B681B6803F046
:103AC0000803002B36D07B685B69002B16D0154BA2
:103AD00001221A60FFF7C0FB386108E0FFF7BCFB6A
:103AE00002463B69D31A022B01D9032367E10B4B32
:103AF0005B6F03F00203002BF0D01BE0094B0022A8
:103B00001A60FFF7A9FB38610EE0FFF7A5FB02463C
:103B10003B69D31A022B07D9032350E10038024036
:103B200000004742800E4742884B5B6F03F0020360
:103B3000002BEAD17B681B6803F00403002B00F024
:103B400097800023FB75814B1B6C03F08053002B87
:103B50000FD10023BB607D4B1B6C7C4A43F080532C
:103B600013647A4B1B6C03F08053BB60BB6801236A
:103B7000FB75774B1B6803F48073002B18D1744BD3
:103B80001B68734A43F480731360FFF765FB386169
:103B900008E0FFF761FB02463B69D31A022B01D90B
:103BA00003230CE16A4B1B6803F48073002BF0D0F5
:103BB0007B689B68012B06D1644B1B6F634A43F003
:103BC000010313671CE07B689B68052B0CD15F4BDE
:103BD0001B6F5E4A43F0040313675C4B1B6F5B4A29
:103BE00043F0010313670BE0584B1B6F574A23F058
:103BF00001031367554B1B6F544A23F004031367EB
:103C00007B689B68002B15D0FFF726FB38610AE024
:103C1000FFF722FB02463B69D31A41F288329342F6
:103C200001D90323CBE0494B1B6F03F00203002BA8
:103C3000EED014E0FFF710FB38610AE0FFF70CFB51
:103C400002463B69D31A41F28832934201D90323D9
:103C5000B5E03E4B1B6F03F00203002BEED1FB7D62
:103C6000012B05D1394B1B6C384A23F08053136468
:103C70007B689B69002B00F0A180344B9B6803F0AC
:103C80000C03082B5CD07B689B69022B41D1314B24
:103C900000221A60FFF7E0FA386108E0FFF7DCFA6B
:103CA00002463B69D31A022B01D9032387E0274B35
:103CB0001B6803F00073002BF0D17B68DA697B6826
:103CC0001B6A1A437B685B6A9B011A437B689B6A89
:103CD0005B08013B1B041A437B68DB6A1B061B491C
:103CE00013434B601B4B01221A60FFF7B5FA386192
:103CF00008E0FFF7B1FA02463B69D31A022B01D95B
:103D000003235CE0114B1B6803F00073002BF0D021
:103D100054E0104B00221A60FFF79EFA386108E069
:103D2000FFF79AFA02463B69D31A022B01D9032303
:103D300045E0064B1B6803F00073002BF0D13DE01B
:103D40007B689B69012B07D1012338E000380240D2
:103D500000700040600047421B4B5B68FB607B6863
:103D60009B69012B28D0FB6803F480027B68DB6928
:103D70009A4221D1FB6803F03F027B681B6A9A429A
:103D80001AD1FA6847F6C07313407A68526A9201F2
:103D9000934211D1FB6803F440327B689B6A5B0855
:103DA000013B1B049A4207D1FB6803F070627B68F9
:103DB000DB6A1B069A4201D0012300E0002318466B
:103DC0001837BD4680BD00BF0038024080B584B0C2
:103DD00000AF786039607B68002B01D10123CCE013
:103DE000684B1B6803F007033A689A420CD9654B8D
:103DF0003A68D2B21A70634B1B6803F007033A6843
:103E00009A4201D00123B8E07B681B6803F00203EB
:103E1000002B20D07B681B6803F00403002B05D027
:103E2000594B9B68584A43F4E05393607B681B6886
:103E300003F00803002B05D0534B9B68524A43F410
:103E400060439360504B9B6823F0F0027B689B6853
:103E50004D4913438B607B681B6803F00103002B03
:103E600044D07B685B68012B07D1474B1B6803F488
:103E70000033002B19D101237FE07B685B68022BA4
:103E800003D07B685B68032B07D13F4B1B6803F0B3
:103E90000073002B09D101236FE03B4B1B6803F03B
:103EA0000203002B01D1012367E0374B9B6823F00D
:103EB00003027B685B68344913438B60FFF7CCF9DE
:103EC000F8600AE0FFF7C8F90246FB68D31A41F22E
:103ED0008832934201D903234FE02B4B9B6803F0B8
:103EE0000C027B685B689B009A42EBD1254B1B68F8
:103EF00003F007033A689A420CD2224B3A68D2B2D6
:103F00001A70204B1B6803F007033A689A4201D0ED
:103F1000012332E07B681B6803F00403002B08D008
:103F2000194B9B6823F4E0527B68DB681649134306
:103F30008B607B681B6803F00803002B09D0124BD1
:103F40009B6823F460427B681B69DB000E491343C6
:103F50008B6000F021F802460B4B9B681B0903F0B5
:103F60000F030A49CB5C22FA03F3094A1360094B99
:103F70001B681846FFF72CF9002318461037BD467A
:103F800080BD00BF003C024000380240BC75000804
:103F900004000020080000202DE9B04F94B000AFCD
:103FA00000237B640023FB6400233B640023BB6489
:103FB000794B9B6803F00C03082B0DD0082B00F203
:103FC000E180002B02D0042B03D0DBE0734BBB64F9
:103FD000DBE0734BBB64D8E06F4B5B6803F03F03DF
:103FE0007B646D4B5B6803F48003002B63D06A4BEA
:103FF0005B689B090022BB63FA63BB6BC3F30803D6
:104000003B6300237B63D7E90C4522462B464FF0E8
:1040100000004FF00001590141EAD261500102460F
:104020000B462146511A3961294663EB01037B6136
:104030004FF000024FF00003D7E904AB59468B0163
:10404000514643EA916351468A015146B2EB010859
:10405000594663EB01094FF000024FF000034FEAAD
:10406000C90343EA58734FEAC8029046994623466B
:1040700018EB0303BB602B4649EB0303FB604FF0D7
:1040800000024FF00003D7E9024529464B022146C2
:1040900043EAD15321464A02104619467B6C00225E
:1040A000BB62FA62D7E90A23FCF786FD02460B469B
:1040B0001346FB6458E0384B5B689B0900221846A6
:1040C0001146C0F308033B6200237B62D7E90889ED
:1040D00042464B464FF000004FF00001590141EAC3
:1040E000D261500102460B464146B2EB010A4946F5
:1040F00063EB010B4FF000024FF000034FEA8B130C
:1041000043EA9A634FEA8A12B2EB0A0463EB0B05A7
:104110004FF000024FF00003EB0043EA5473E2005B
:1041200014461D464346E3183B604B4645EB0303EC
:104130007B604FF000024FF00003D7E900452946AD
:104140008B02214643EA915321468A0210461946C2
:104150007B6C0022BB61FA61D7E90623FCF72CFDDA
:1041600002460B461346FB640B4B5B681B0C03F0CB
:10417000030301335B003B64FA6C3B6CB2FBF3F36B
:10418000BB6402E0054BBB6400BFBB6C18465037F4
:10419000BD46BDE8B08F00BF003802400024F400E7
:1041A00000127A0080B400AF034B1B681846BD466E
:1041B0005DF8047B704700BF0400002080B500AFAD
:1041C000FFF7F0FF0246054B9B689B0A03F00703CD
:1041D0000349CB5C22FA03F3184680BD0038024045
:1041E000CC75000880B500AFFFF7DCFF0246054B39
:1041F0009B685B0B03F007030349CB5C22FA03F3D4
:10420000184680BD00380240CC75000880B582B0E9
:1042100000AF78607B68002B01D101237BE07B68D5
:104220005B6A002B08D17B685B68B3F5827F09D09D
:104230007B680022DA6105E07B6800221A617B68F6
:1042400000225A617B6800229A627B6893F85130A1
:10425000DBB2002B06D17B68002283F850207868FF
:1042600000F05DF87B68022283F851207B681B68B0
:104270001A687B681B6822F040021A607B685B68E2
:1042800003F482727B689B6803F404431A437B68DF
:10429000DB6803F400631A437B681B6903F00203C5
:1042A0001A437B685B6903F001031A437B689B69CF
:1042B00003F400731A437B68DB6903F038031A4385
:1042C0007B681B6A03F0800342EA03017B689B6AF8
:1042D00003F400527B681B680A431A607B689B6981
:1042E0001B0C03F004017B685B6A03F010027B681F
:1042F0001B680A435A607B681B68DA697B681B6825
:1043000022F40062DA617B6800225A657B68012230
:1043100083F85120002318460837BD4680BD80B47D
:1043200083B000AF786000BF0C37BD465DF8047BFA
:10433000704780B588B000AFF860B9603B60134645
:10434000FB800023FB77FB6893F85030012B01D1F1
:10435000022326E1FB68012283F85020FEF77CFF50
:10436000B861FB88FB82FB6893F85130DBB2012B0C
:1043700002D00223FB770BE1BB68002B02D0FB8845
:10438000002B02D10123FB7702E1FB68032283F8B3
:104390005120FB6800225A65FB68BA681A63FB6803
:1043A000FA889A86FB68FA88DA86FB6800229A63A4
:1043B000FB6800229A87FB680022DA87FB680022EC
:1043C0005A64FB6800221A64FB689B68B3F5004FCF
:1043D0000FD1FB681B681A68FB681B6822F040025B
:1043E0001A60FB681B681A68FB681B6842F480420D
:1043F0001A60FB681B681B6803F04003402B07D062
:10440000FB681B681A68FB681B6842F040021A6070
:10441000FB68DB68B3F5006F4BD1FB685B68002B72
:1044200002D0FB8A012B3ED1FB681B6B1A88FB680C
:104430001B68DA60FB681B6B9A1CFB681A63FB68DD
:10444000DB8E9BB2013B9AB2FB68DA862BE0FB68FD
:104450001B689B6803F00203022B12D1FB681B6BE5
:104460001A88FB681B68DA60FB681B6B9A1CFB6888
:104470001A63FB68DB8E9BB2013B9AB2FB68DA865B
:1044800011E0FEF7E9FE0246BB69D31A3A689A4288
:1044900003D83B68B3F1FF3F02D13B68002B02D148
:1044A0000323FB7774E0FB68DB8E9BB2002BCED13D
:1044B0004CE0FB685B68002B02D0FB8A012B40D1EB
:1044C000FB681A6BFB681B680C3312781A70FB6868
:1044D0001B6B5A1CFB681A63FB68DB8E9BB2013BAB
:1044E0009AB2FB68DA862CE0FB681B689B6803F0D5
:1044F0000203022B13D1FB681A6BFB681B680C3399
:1045000012781A70FB681B6B5A1CFB681A63FB68F5
:10451000DB8E9BB2013B9AB2FB68DA8611E0FEF7B4
:104520009BFE0246BB69D31A3A689A4203D83B689D
:10453000B3F1FF3F02D13B68002B02D10323FB778D
:1045400026E0FB68DB8E9BB2002BCDD1BA693968BF
:10455000F86800F0D9FB0346002B02D0FB6820224C
:104560005A65FB689B68002B0AD100233B61FB68FE
:104570001B68DB683B61FB681B689B683B613B69B0
:10458000FB685B6D002B02D00123FB7700E000BFCE
:10459000FB68012283F85120FB68002283F8502039
:1045A000FB7F18462037BD4680BD80B588B002AF7E
:1045B000F860B9603B601346FB800023FB75FB6825
:1045C0005B68B3F5827F12D1FB689B68002B0ED12C
:1045D000FB68042283F85120FA883B680093134655
:1045E000BA68B968F86800F0F1F80346EAE0FB68D9
:1045F00093F85030012B01D10223E3E0FB68012244
:1046000083F85020FEF728FE3861FB6893F851309C
:10461000DBB2012B02D00223FB75CAE0BB68002B82
:1046200002D0FB88002B02D10123FB75C1E0FB689F
:10463000042283F85120FB6800225A65FB68BA689F
:104640009A63FB68FA889A87FB68FA88DA87FB68BE
:1046500000221A63FB6800229A86FB680022DA8631
:10466000FB6800221A64FB6800225A64FB689B689E
:10467000B3F5004F0FD1FB681B681A68FB681B6815
:1046800022F040021A60FB681B681A68FB681B680E
:1046900022F480421A60FB681B681B6803F0400329
:1046A000402B07D0FB681B681A68FB681B6842F048
:1046B00040021A60FB68DB68002B62D12EE0FB68C9
:1046C0001B689B6803F00103012B15D1FB681B6875
:1046D00003F10C02FB689B6B1278D2B21A70FB6874
:1046E0009B6B5A1CFB689A63FB68DB8F9BB2013B98
:1046F0009AB2FB68DA8711E0FEF7AEFD02463B692D
:10470000D31A3A689A4203D83B68B3F1FF3F02D10B
:104710003B68002B02D10323FB754AE0FB68DB8F6B
:104720009BB2002BCBD131E0FB681B689B6803F088
:104730000103012B13D1FB681B68DA68FB689B6BD4
:1047400092B21A80FB689B6B9A1CFB689A63FB68A9
:10475000DB8F9BB2013B9AB2FB68DA8711E0FEF770
:104760007BFD02463B69D31A3A689A4203D83B68FC
:10477000B3F1FF3F02D13B68002B02D10323FB754D
:1047800017E0FB68DB8F9BB2002BCDD13A6939680B
:10479000F86800F053FA0346002B02D0FB68202291
:1047A0005A65FB685B6D002B02D00123FB7500E0AE
:1047B00000BFFB68012283F85120FB68002283F8C8
:1047C0005020FB7D18461837BD4680BD80B58CB0A3
:1047D00000AFF860B9607A607B800123FB62002340
:1047E00087F82B30FB6893F85030012B01D102235E
:1047F0008AE1FB68012283F85020FEF72DFD7862E4
:10480000FB6893F8513087F82330FB685B68FB61E5
:104810007B887B8397F82330012B0FD0FB69B3F59E
:10482000827F07D1FB689B68002B03D197F8233068
:10483000042B03D0022387F82B305BE1BB68002BED
:1048400005D07B68002B02D07B88002B03D101238D
:1048500087F82B304EE1FB6893F85130DBB2042B24
:1048600003D0FB68052283F85120FB6800225A65BB
:10487000FB687A689A63FB687A88DA87FB687A88CB
:104880009A87FB68BA681A63FB687A88DA86FB68DD
:104890007A889A86FB6800221A64FB6800225A64B0
:1048A000FB681B681B6803F04003402B07D0FB68C4
:1048B0001B681A68FB681B6842F040021A60FB68BC
:1048C000DB68B3F5006F78D1FB685B68002B02D022
:1048D0007B8B012B66D1FB681B6B1A88FB681B68FE
:1048E000DA60FB681B6B9A1CFB681A63FB68DB8E43
:1048F0009BB2013B9AB2FB68DA8653E0FB681B6807
:104900009B6803F00203022B1BD1FB68DB8E9BB27A
:10491000002B16D0FB6A012B13D1FB681B6B1A8886
:10492000FB681B68DA60FB681B6B9A1CFB681A63E8
:10493000FB68DB8E9BB2013B9AB2FB68DA860023F0
:10494000FB62FB681B689B6803F00103012B19D114
:10495000FB68DB8F9BB2002B14D0FB681B68DA6806
:10496000FB689B6B92B21A80FB689B6B9A1CFB687E
:104970009A63FB68DB8F9BB2013B9AB2FB68DA87D4
:104980000123FB62FEF768FC02467B6AD31ABA6B0E
:104990009A4207D8BB6BB3F1FF3F03D0032387F8DC
:1049A0002B30A7E0FB68DB8E9BB2002BA6D1FB6807
:1049B000DB8F9BB2002BA1D17CE0FB685B68002BF6
:1049C00002D07B8B012B6BD1FB681A6BFB681B68D9
:1049D0000C3312781A70FB681B6B5A1CFB681A6345
:1049E000FB68DB8E9BB2013B9AB2FB68DA8657E02C
:1049F000FB681B689B6803F00203022B1CD1FB6859
:104A0000DB8E9BB2002B17D0FB6A012B14D1FB6805
:104A10001A6BFB681B680C3312781A70FB681B6BEF
:104A20005A1CFB681A63FB68DB8E9BB2013B9AB28F
:104A3000FB68DA860023FB62FB681B689B6803F057
:104A40000103012B19D1FB68DB8F9BB2002B14D023
:104A5000FB681B68DA68FB689B6BD2B21A70FB6854
:104A60009B6B5A1CFB689A63FB68DB8F9BB2013B14
:104A70009AB2FB68DA870123FB62FEF7EDFB024680
:104A80007B6AD31ABA6B9A4203D8BB6BB3F1FF3F70
:104A900002D1BB6B002B03D1032387F82B3029E015
:104AA000FB68DB8E9BB2002BA2D1FB68DB8F9BB235
:104AB000002B9DD17A6AB96BF86800F025F903469E
:104AC000002B06D0012387F82B30FB6820225A6583
:104AD00010E0FB689B68002B0BD100237B61FB6817
:104AE0001B68DB687B61FB681B689B687B617B697B
:104AF00000E000BFFB68012283F85120FB68002220
:104B000083F8502097F82B3018463037BD4680BDCB
:104B100080B483B000AF78607B6893F85130DBB22B
:104B200018460C37BD465DF8047B704780B588B0E9
:104B300000AFF860B9603B601346FB71FEF78CFB79
:104B40000246BB6A9B1A3A681344FB61FEF784FB7A
:104B5000B861394B1B685B011B0DFA6902FB03F35B
:104B60007B6154E03B68B3F1FF3F50D0FEF774FB2C
:104B70000246BB69D31AFA699A4202D9FB69002B33
:104B80003DD1FB681B685A68FB681B6822F0E00295
:104B90005A60FB685B68B3F5827F11D1FB689B6844
:104BA000B3F5004F04D0FB689B68B3F5806F07D165
:104BB000FB681B681A68FB681B6822F040021A60D9
:104BC000FB689B6AB3F5005F0FD1FB681B681A682E
:104BD000FB681B6822F400521A60FB681B681A68A5
:104BE000FB681B6842F400521A60FB68012283F8DC
:104BF0005120FB68002283F85020032317E07B69D3
:104C0000002B01D10023FB617B69013B7B61FB68C9
:104C10001B689A68BB681340BA689A420CBF0123AC
:104C20000023DBB21A46FB799A429BD10023184637
:104C30002037BD4680BD00BF0400002080B586B08F
:104C400002AFF860B9607A60FB685B68B3F5827F99
:104C500011D1FB689B68B3F5004F04D0FB689B68DB
:104C6000B3F5806F07D1FB681B681A68FB681B6887
:104C700022F040021A60FB685B68B3F5827F2AD19C
:104C8000FB689B68B3F5806F12D07B680093BB68AC
:104C900000228021F868FFF749FF0346002B2DD042
:104CA000FB685B6D43F02002FB685A65032326E036
:104CB0007B680093BB6800220121F868FFF736FF8C
:104CC0000346002B1AD0FB685B6D43F02002FB68A3
:104CD0005A65032313E07B680093BB68002201211F
:104CE000F868FFF723FF0346002B07D0FB685B6DD6
:104CF00043F02002FB685A65032300E000231846B6
:104D00001037BD4680BD000080B588B002AFF860A6
:104D1000B9607A601B4B1B681B4AA2FB03235B0D27
:104D20004FF47A7202FB03F37B61FB685B68B3F5B7
:104D3000827F12D17B680093BB6800228021F868D3
:104D4000FFF7F4FE0346002B16D0FB685B6D43F0C3
:104D50002002FB685A6503230FE07B69002B0AD011
:104D60007B69013B7B61FB681B689B6803F08003E8
:104D7000802BF2D000E000BF002318461837BD4654
:104D800080BD00BF04000020819F5E1680B582B008
:104D900000AF78607B68002B01D101233FE07B6886
:104DA00093F83D30DBB2002B06D17B68002283F8FC
:104DB0003C207868FEF792F97B68242283F83D2036
:104DC0007B681B68DA687B681B6822F40052DA6033
:104DD000786800F07BFC7B681B681A697B681B683D
:104DE00022F490421A617B681B685A697B681B68D1
:104DF00022F02A025A617B681B68DA687B681B68AC
:104E000042F40052DA607B6800221A647B68202238
:104E100083F83D207B68202283F83E20002318463B
:104E20000837BD4680BD000080B5BAB000AF7860DD
:104E30007B681B681B68C7F8E4307B681B68DB680D
:104E4000C7F8E0307B681B685B69C7F8DC3000237B
:104E5000C7F8D8300023C7F8D430D7F8E43003F0CF
:104E60000F03C7F8D830D7F8D830002B0FD1D7F8B8
:104E7000E43003F02003002B09D0D7F8E03003F032
:104E80002003002B03D0786800F065FB56E2D7F8CA
:104E9000D830002B00F0DE80D7F8DC3003F00103BF
:104EA000002B06D1D7F8E03003F49073002B00F00C
:104EB000D180D7F8E43003F00103002B0BD0D7F8F2
:104EC000E03003F48073002B05D07B681B6C43F04B
:104ED00001027B681A64D7F8E43003F00403002B66
:104EE0000BD0D7F8DC3003F00103002B05D07B6832
:104EF0001B6C43F002027B681A64D7F8E43003F0BD
:104F00000203002B0BD0D7F8DC3003F00103002B99
:104F100005D07B681B6C43F004027B681A64D7F8E9
:104F2000E43003F00803002B11D0D7F8E03003F091
:104F30002003002B05D1D7F8DC3003F00103002B50
:104F400005D07B681B6C43F008027B681A647B68A1
:104F50001B6C002B00F0ED81D7F8E43003F0200348
:104F6000002B08D0D7F8E03003F02003002B02D04C
:104F7000786800F0F0FA7B681B685B6903F0400317
:104F8000402B0CBF01230023DBB2C7F8D4307B6871
:104F90001B6C03F00803002B03D1D7F8D430002B8F
:104FA0004FD0786800F0F8F97B681B685B6903F004
:104FB0004003402B41D17B681B681433C7F89C30F9
:104FC000D7F89C3053E8003FC7F89830D7F89830AE
:104FD00023F04003C7F8D0307B681B681433D7F840
:104FE000D020C7F8A820C7F8A430D7F8A410D7F865
:104FF000A82041E80023C7F8A030D7F8A030002B44
:10500000D9D17B689B6B002B13D07B689B6B7D4A4F
:105010001A657B689B6B1846FEF7A0FA0346002BC7
:1050200016D07B689B6B1B6D7A68926B1046984715
:105030000EE0786800F09AF90AE0786800F096F9D6
:1050400006E0786800F092F97B6800221A6470E14B
:1050500000BF6EE17B681B6B012B40F04A81D7F8E3
:10506000E43003F01003002B00F04381D7F8E03068
:1050700003F01003002B00F03C810023BB607B6831
:105080001B681B68BB607B681B685B68BB60BB6898
:105090007B681B685B6903F04003402B40F0B480E1
:1050A0007B689B6B1B685B68A7F8BE30B7F8BE30A7
:1050B000002B00F040817B689B8DB7F8BE209A42A0
:1050C00080F039817B68B7F8BE20DA857B689B6BFE
:1050D000DB69B3F5807F00F088807B681B680C3348
:1050E000C7F88830D7F8883053E8003FC7F88430D5
:1050F000D7F8843023F48073C7F8B8307B681B6816
:105100000C33D7F8B820C7F89420C7F89030D7F8F8
:105110009010D7F8942041E80023C7F88C30D7F8D6
:105120008C30002BD9D17B681B6814337B677B6F75
:1051300053E8003F3B673B6F23F00103C7F8B430EF
:105140007B681B681433D7F8B420C7F88020FB674E
:10515000F96FD7F8802041E80023BB67BB6F002BB5
:10516000E1D17B681B6814333B663B6E53E8003F1C
:10517000FB65FB6D23F04003C7F8B0307B681B680C
:105180001433D7F8B020FA66BB66B96EFA6E41E800
:1051900000237B667B6E002BE3D17B68202283F8A3
:1051A0003E207B6800221A637B681B680C33FB641B
:1051B000FB6C53E8003FBB64BB6C23F01003C7F8E3
:1051C000AC307B681B680C33D7F8AC20BA657B65C4
:1051D000796DBA6D41E800233B653B6D002BE3D14F
:1051E0007B689B6B1846FEF749F97B689A8D7B6854
:1051F000DB8D9BB2D31A9BB21946786800F0C0F8D9
:1052000099E000BF5F5400087B689A8D7B68DB8D56
:105210009BB2D31AA7F8CE307B68DB8D9BB2002BF4
:1052200000F08B80B7F8CE30002B00F086807B68D2
:105230001B680C33BB63BB6B53E8003F7B637B6B2A
:1052400023F49073C7F8C8307B681B680C33D7F819
:10525000C8207A643B64396C7A6C41E80023FB63B4
:10526000FB6B002BE3D17B681B6814337B627B6A8A
:1052700053E8003F3B623B6A23F00103C7F8C430A8
:105280007B681B681433D7F8C4203A63FB62F96A61
:105290003A6B41E80023BB62BB6A002BE3D17B6819
:1052A000202283F83E207B6800221A637B681B68FB
:1052B0000C333B613B6953E8003FFB60FB6823F024
:1052C0001003C7F8C0307B681B680C33D7F8C020C8
:1052D000FA61BB61B969FA6941E800237B617B69C6
:1052E000002BE3D1B7F8CE301946786800F048F8C3
:1052F00023E0D7F8E43003F08003002B09D0D7F87F
:10530000E03003F08003002B03D0786800F0BBF896
:1053100014E0D7F8E43003F04003002B0ED0D7F8A8
:10532000E03003F04003002B08D0786800F0FBF871
:1053300004E000BF02E000BF00E000BFE837BD4668
:1053400080BD00BF80B483B000AF786000BF0C3771
:10535000BD465DF8047B704780B483B000AF7860D1
:1053600000BF0C37BD465DF8047B704780B483B046
:1053700000AF786000BF0C37BD465DF8047B704716
:1053800080B483B000AF78600B467B8000BF0C37E1
:10539000BD465DF8047B704780B495B000AF78607F
:1053A0007B681B680C337B637B6B53E8003F3B637C
:1053B0003B6B23F49073FB647B681B680C33FA6CC3
:1053C0003A64FB63F96B3A6C41E80023BB63BB6B47
:1053D000002BE5D17B681B6814333B623B6A53E8C2
:1053E000003FFB61FB6923F00103BB647B681B6822
:1053F0001433BA6CFA62BB62B96AFA6A41E80023F4
:105400007B627B6A002BE5D17B681B6B012B19D17A
:105410007B681B680C33FB60FB6853E8003FBB6094
:10542000BB6823F010037B647B681B680C337A6CC9
:10543000BA617B617969BA6941E800233B613B69E4
:10544000002BE5D17B68202283F83E207B68002278
:105450001A6300BF5437BD465DF8047B704780B5C2
:1054600084B000AF78607B689B6BFB60FB680022B8
:10547000DA85FB680022DA84F868FFF777FF00BF5F
:105480001037BD4680BD80B485B000AF78607B68C2
:1054900093F83D30DBB2212B3ED17B689B68B3F59E
:1054A000805F14D17B681B69002B10D17B681B6A5D
:1054B000FB60FB681B881A467B681B68C2F3080206
:1054C0005A607B681B6A9A1C7B681A6208E07B68DA
:1054D0001B6A591C7A6811621A787B681B685A60CB
:1054E0007B68DB8C9BB2013B9BB27A681946D18406
:1054F000002B0FD17B681B68DA687B681B6822F081
:105500008002DA607B681B68DA687B681B6842F09F
:105510004002DA60002300E0022318461437BD463B
:105520005DF8047B704780B582B000AF78607B681F
:105530001B68DA687B681B6822F04002DA607B68CF
:10554000202283F83D207868FFF7FCFE00231846F0
:105550000837BD4680BD80B58CB000AF78607B68F1
:1055600093F83E30DBB2222B40F0AB807B689B6827
:10557000B3F5805F17D17B681B69002B13D1002323
:10558000FB627B689B6ABB627B681B685B689BB243
:10559000C3F308039AB2BB6A1A807B689B6A9A1CA1
:1055A0007B689A6226E07B689B6AFB620023BB6291
:1055B0007B689B68B3F5805F07D07B689B68002B96
:1055C0000AD17B681B69002B06D17B681B685B686E
:1055D000DAB2FB6A1A7008E07B681B685B68DBB2B2
:1055E00003F07F03DAB2FB6A1A707B689B6A5A1C6D
:1055F0007B689A627B68DB8D9BB2013B9BB27A68C9
:105600001946D185002B5AD17B681B68DA687B6804
:105610001B6822F02002DA607B681B68DA687B680E
:105620001B6822F48072DA607B681B685A697B68A9
:105630001B6822F001025A617B68202283F83E2019
:105640007B681B6B012B35D17B6800221A637B685A
:105650001B680C337B617B6953E8003F3B613B690E
:1056600023F010037B627B681B680C337A6A3A6212
:10567000FB61F9693A6A41E80023BB61BB69002B11
:10568000E5D17B681B681B6803F01003102B0AD15F
:105690000023FB607B681B681B68FB607B681B68E2
:1056A0005B68FB60FB687B689B8D19467868FFF739
:1056B00067FE02E07868FFF74FFE002302E0002358
:1056C00000E0022318463037BD4680BD2DE9B04FBB
:1056D000C0B000AFC7F8F400D7F8F4301B681B69FE
:1056E00023F44050D7F8F430D968D7F8F4301A686A
:1056F00040EA01031361D7F8F4309A68D7F8F43020
:105700001B691A43D7F8F4305B691A43D7F8F430B1
:10571000DB691343C7F8F830D7F8F4301B68DB684F
:1057200023F4164121F00C01D7F8F4301A68D7F8A9
:10573000F8300B43D360D7F8F4301B685B6923F46F
:105740004070D7F8F4309969D7F8F4301A6840EA15
:1057500001035361D7F8F4301A688F4B9A4205D091
:10576000D7F8F4301A688D4B9A4204D1FEF73AFD0F
:10577000C7F8FC0003E0FEF721FDC7F8FC00D7F8EE
:10578000F430DB69B3F5004F40F00C81D7F8FC3002
:105790000022C7F8E830C7F8EC20D7E93A4522469E
:1057A0002B469118B9655B41FB65D7E91623214665
:1057B00012EB0108294643EB01094FF000024FF0BC
:1057C00000034FEAC90343EA58734FEAC802904600
:1057D0009946234618EB0303C7F8E0302B4649EB04
:1057E0000303C7F8E430D7F8F4305B680022C7F849
:1057F000D830C7F8DC20D7E936120B46DB183B65FA
:10580000134642EB03037B65D7E91423D7E938013C
:10581000FBF7D2F902460B46614BA3FB02235B095F
:105820001C01D7F8FC300022C7F8D030C7F8D420CC
:10583000D7E9348942464B469118B9645B41FB6411
:10584000D7E91223414612EB010A494643EB010B0B
:105850004FF000024FF000034FEACB0343EA5A73C4
:105860004FEACA0292469B4643461AEB0303C7F827
:10587000C8304B464BEB0303C7F8CC30D7F8F430B5
:105880005B680022C7F8C030C7F8C420D7E93012DF
:105890000B46DB183B64134642EB03037B64D7E9FA
:1058A0001023D7E93201FBF787F902460B46114670
:1058B0003B4BA3FB01235B09642202FB03F3CB1ADE
:1058C000DB0003F13202364BA3FB02235B095B00D2
:1058D00003F4F8731C44D7F8FC300022C7F8B83042
:1058E000C7F8BC20D7E92E8942464B469118B963C8
:1058F0005B41FB63D7E90E234146511839634946A2
:105900004B417B634FF000024FF00003D7E90CAB33
:105910005946CB00514643EA51735146CA001046DE
:105920001946034642469B18C7F8B0304B460A4614
:1059300042EB0303C7F8B430D7F8F4305B680022B9
:10594000C7F8A830C7F8AC20D7E92A120B46DB18F5
:10595000BB62134642EB0303FB62D7E90A23D7E994
:105960002C01FBF729F902460B460D4BA3FB021352
:105970005B09642101FB03F3D31ADB003233084ACD
:10598000A2FB03235B0903F00702D7F8F4301B687E
:1059900022449A6006E100BF00100140001401405B
:1059A0001F85EB51D7F8FC300022C7F8A030C7F8AC
:1059B000A420D7E9288942464B46911839625B41B9
:1059C0007B62D7E9082341465418494643EB010559
:1059D0004FF000024FF00003EB0043EA5473E20083
:1059E00014461D464346E318C7F898304B4645EB2E
:1059F0000303C7F89C30D7F8F4305B680022C7F87F
:105A00009030C7F894204FF000024FF00003D7E920
:105A1000244529468B00214643EA917321468A009A
:105A2000D7E92601FBF7C8F802460B46604BA3FBFB
:105A300002235B091C01D7F8FC300022C7F888302C
:105A4000C7F88C20D7E9228942464B469118B961A4
:105A50005B41FB61D7E9062341465118396149464C
:105A60004B417B614FF000024FF00003D7E904ABDC
:105A70005946CB00514643EA51735146CA0010467D
:105A80001946034642469B18C7F880304B460A46E3
:105A900042EB0303C7F88430D7F8F4305B68002288
:105AA000BB67FA674FF000024FF00003D7E91E8989
:105AB00049468B00414643EA917341468A00D7E943
:105AC0002001FBF779F802460B461146384BA3FB41
:105AD00001235B09642202FB03F3CB1A1B0132335F
